{
  "contractName": "Dex",
  "abi": [
    {
      "inputs": [
        {
          "internalType": "address",
          "name": "token_addr",
          "type": "address"
        }
      ],
      "payable": false,
      "stateMutability": "nonpayable",
      "type": "constructor"
    },
    {
      "anonymous": false,
      "inputs": [
        {
          "indexed": false,
          "internalType": "address",
          "name": "depositor",
          "type": "address"
        },
        {
          "indexed": false,
          "internalType": "uint256",
          "name": "ethVal",
          "type": "uint256"
        },
        {
          "indexed": false,
          "internalType": "uint256",
          "name": "tokenVal",
          "type": "uint256"
        }
      ],
      "name": "depositEvent",
      "type": "event"
    },
    {
      "anonymous": false,
      "inputs": [
        {
          "indexed": false,
          "internalType": "address",
          "name": "swapper",
          "type": "address"
        },
        {
          "indexed": false,
          "internalType": "uint256",
          "name": "ethVal",
          "type": "uint256"
        },
        {
          "indexed": false,
          "internalType": "uint256",
          "name": "tokenVal",
          "type": "uint256"
        }
      ],
      "name": "ethToTokenEvent",
      "type": "event"
    },
    {
      "anonymous": false,
      "inputs": [
        {
          "indexed": false,
          "internalType": "address",
          "name": "swapper",
          "type": "address"
        },
        {
          "indexed": false,
          "internalType": "uint256",
          "name": "ethVal",
          "type": "uint256"
        },
        {
          "indexed": false,
          "internalType": "uint256",
          "name": "tokenVal",
          "type": "uint256"
        }
      ],
      "name": "tokenToEthEvent",
      "type": "event"
    },
    {
      "anonymous": false,
      "inputs": [
        {
          "indexed": false,
          "internalType": "address",
          "name": "withdrawer",
          "type": "address"
        },
        {
          "indexed": false,
          "internalType": "uint256",
          "name": "ethVal",
          "type": "uint256"
        },
        {
          "indexed": false,
          "internalType": "uint256",
          "name": "tokenVal",
          "type": "uint256"
        }
      ],
      "name": "withdrawEvent",
      "type": "event"
    },
    {
      "payable": true,
      "stateMutability": "payable",
      "type": "fallback"
    },
    {
      "constant": true,
      "inputs": [
        {
          "internalType": "address",
          "name": "",
          "type": "address"
        }
      ],
      "name": "liquidity",
      "outputs": [
        {
          "internalType": "uint256",
          "name": "",
          "type": "uint256"
        }
      ],
      "payable": false,
      "stateMutability": "view",
      "type": "function"
    },
    {
      "constant": true,
      "inputs": [],
      "name": "totalLiquidity",
      "outputs": [
        {
          "internalType": "uint256",
          "name": "",
          "type": "uint256"
        }
      ],
      "payable": false,
      "stateMutability": "view",
      "type": "function"
    },
    {
      "constant": false,
      "inputs": [
        {
          "internalType": "uint256",
          "name": "tokens",
          "type": "uint256"
        }
      ],
      "name": "init",
      "outputs": [
        {
          "internalType": "uint256",
          "name": "",
          "type": "uint256"
        }
      ],
      "payable": true,
      "stateMutability": "payable",
      "type": "function"
    },
    {
      "constant": true,
      "inputs": [
        {
          "internalType": "uint256",
          "name": "input_amount",
          "type": "uint256"
        },
        {
          "internalType": "uint256",
          "name": "input_reserve",
          "type": "uint256"
        },
        {
          "internalType": "uint256",
          "name": "output_reserve",
          "type": "uint256"
        }
      ],
      "name": "price",
      "outputs": [
        {
          "internalType": "uint256",
          "name": "",
          "type": "uint256"
        }
      ],
      "payable": false,
      "stateMutability": "pure",
      "type": "function"
    },
    {
      "constant": true,
      "inputs": [],
      "name": "getEthLiquidity",
      "outputs": [
        {
          "internalType": "uint256",
          "name": "",
          "type": "uint256"
        }
      ],
      "payable": false,
      "stateMutability": "view",
      "type": "function"
    },
    {
      "constant": true,
      "inputs": [],
      "name": "getTokenLiquidity",
      "outputs": [
        {
          "internalType": "uint256",
          "name": "",
          "type": "uint256"
        }
      ],
      "payable": false,
      "stateMutability": "view",
      "type": "function"
    },
    {
      "constant": true,
      "inputs": [
        {
          "internalType": "uint256",
          "name": "input_ETH",
          "type": "uint256"
        }
      ],
      "name": "getPriceEthToToken",
      "outputs": [
        {
          "internalType": "uint256",
          "name": "",
          "type": "uint256"
        }
      ],
      "payable": false,
      "stateMutability": "view",
      "type": "function"
    },
    {
      "constant": false,
      "inputs": [],
      "name": "ethToToken",
      "outputs": [
        {
          "internalType": "uint256",
          "name": "",
          "type": "uint256"
        }
      ],
      "payable": true,
      "stateMutability": "payable",
      "type": "function"
    },
    {
      "constant": true,
      "inputs": [
        {
          "internalType": "uint256",
          "name": "input_Token",
          "type": "uint256"
        }
      ],
      "name": "getPriceTokenToEth",
      "outputs": [
        {
          "internalType": "uint256",
          "name": "",
          "type": "uint256"
        }
      ],
      "payable": false,
      "stateMutability": "view",
      "type": "function"
    },
    {
      "constant": false,
      "inputs": [
        {
          "internalType": "uint256",
          "name": "tokens",
          "type": "uint256"
        }
      ],
      "name": "tokenToEth",
      "outputs": [
        {
          "internalType": "uint256",
          "name": "",
          "type": "uint256"
        }
      ],
      "payable": false,
      "stateMutability": "nonpayable",
      "type": "function"
    },
    {
      "constant": false,
      "inputs": [],
      "name": "deposit",
      "outputs": [
        {
          "internalType": "uint256",
          "name": "",
          "type": "uint256"
        }
      ],
      "payable": true,
      "stateMutability": "payable",
      "type": "function"
    },
    {
      "constant": false,
      "inputs": [
        {
          "internalType": "uint256",
          "name": "amount",
          "type": "uint256"
        }
      ],
      "name": "withdraw",
      "outputs": [
        {
          "internalType": "uint256",
          "name": "",
          "type": "uint256"
        },
        {
          "internalType": "uint256",
          "name": "",
          "type": "uint256"
        }
      ],
      "payable": false,
      "stateMutability": "nonpayable",
      "type": "function"
    }
  ],
  "bytecode": "0x608060405234801561001057600080fd5b50604051611bbf380380611bbf8339818101604052602081101561003357600080fd5b8101908080519060200190929190505050806000806101000a81548173ffffffffffffffffffffffffffffffffffffffff021916908373ffffffffffffffffffffffffffffffffffffffff160217905550600060018190555050611b238061009c6000396000f3fe6080604052600436106100a75760003560e01c8063942c439511610064578063942c439514610249578063a20d25ac14610274578063ae3c22481461029f578063b7b0422d146102ee578063b8c876b114610330578063d0e30db014610395576100a7565b806310b09bb2146100a957806315770f92146100f85780632071a9f4146101235780632e1a7d4d1461018657806370b2a30f146101dc578063789770f41461022b575b005b3480156100b557600080fd5b506100e2600480360360208110156100cc57600080fd5b81019080803590602001909291905050506103b3565b6040518082815260200191505060405180910390f35b34801561010457600080fd5b5061010d61049f565b6040518082815260200191505060405180910390f35b34801561012f57600080fd5b506101706004803603606081101561014657600080fd5b810190808035906020019092919080359060200190929190803590602001909291905050506104a5565b6040518082815260200191505060405180910390f35b34801561019257600080fd5b506101bf600480360360208110156101a957600080fd5b8101908080359060200190929190505050610517565b604051808381526020018281526020019250505060405180910390f35b3480156101e857600080fd5b50610215600480360360208110156101ff57600080fd5b8101908080359060200190929190505050610ace565b6040518082815260200191505060405180910390f35b610233610d9f565b6040518082815260200191505060405180910390f35b34801561025557600080fd5b5061025e61100c565b6040518082815260200191505060405180910390f35b34801561028057600080fd5b506102896110f1565b6040518082815260200191505060405180910390f35b3480156102ab57600080fd5b506102d8600480360360208110156102c257600080fd5b81019080803590602001909291905050506110fe565b6040518082815260200191505060405180910390f35b61031a6004803603602081101561030457600080fd5b81019080803590602001909291905050506111ea565b6040518082815260200191505060405180910390f35b34801561033c57600080fd5b5061037f6004803603602081101561035357600080fd5b81019080803573ffffffffffffffffffffffffffffffffffffffff16906020019092919050505061143c565b6040518082815260200191505060405180910390f35b61039d611454565b6040518082815260200191505060405180910390f35b6000610498826000809054906101000a900473ffffffffffffffffffffffffffffffffffffffff1673ffffffffffffffffffffffffffffffffffffffff166370a08231306040518263ffffffff1660e01b8152600401808273ffffffffffffffffffffffffffffffffffffffff1673ffffffffffffffffffffffffffffffffffffffff16815260200191505060206040518083038186803b15801561045757600080fd5b505afa15801561046b573d6000803e3d6000fd5b505050506040513d602081101561048157600080fd5b8101908080519060200190929190505050476104a5565b9050919050565b60015481565b6000806104bd6103e5866117eb90919063ffffffff16565b905060006104d484836117eb90919063ffffffff16565b905060006104ff836104f16103e8896117eb90919063ffffffff16565b61187190919063ffffffff16565b905080828161050a57fe5b0493505050509392505050565b6000806000670de0b6b3a76400008402905060008060009054906101000a900473ffffffffffffffffffffffffffffffffffffffff1673ffffffffffffffffffffffffffffffffffffffff166370a08231306040518263ffffffff1660e01b8152600401808273ffffffffffffffffffffffffffffffffffffffff1673ffffffffffffffffffffffffffffffffffffffff16815260200191505060206040518083038186803b1580156105c957600080fd5b505afa1580156105dd573d6000803e3d6000fd5b505050506040513d60208110156105f357600080fd5b81019080805190602001909291905050509050600060015461061e47856117eb90919063ffffffff16565b8161062557fe5b049050600060015461064084866117eb90919063ffffffff16565b8161064757fe5b0490508147116106a2576040517f08c379a0000000000000000000000000000000000000000000000000000000008152600401808060200182810382526035815260200180611a356035913960400191505060405180910390fd5b806000809054906101000a900473ffffffffffffffffffffffffffffffffffffffff1673ffffffffffffffffffffffffffffffffffffffff166370a08231306040518263ffffffff1660e01b8152600401808273ffffffffffffffffffffffffffffffffffffffff1673ffffffffffffffffffffffffffffffffffffffff16815260200191505060206040518083038186803b15801561074157600080fd5b505afa158015610755573d6000803e3d6000fd5b505050506040513d602081101561076b57600080fd5b8101908080519060200190929190505050116107d2576040517f08c379a0000000000000000000000000000000000000000000000000000000008152600401808060200182810382526037815260200180611a6a6037913960400191505060405180910390fd5b81600260003373ffffffffffffffffffffffffffffffffffffffff1673ffffffffffffffffffffffffffffffffffffffff1681526020019081526020016000205411610869576040517f08c379a000000000000000000000000000000000000000000000000000000000815260040180806020018281038252602d815260200180611ac2602d913960400191505060405180910390fd5b6108bb82600260003373ffffffffffffffffffffffffffffffffffffffff1673ffffffffffffffffffffffffffffffffffffffff168152602001908152602001600020546118f990919063ffffffff16565b600260003373ffffffffffffffffffffffffffffffffffffffff1673ffffffffffffffffffffffffffffffffffffffff16815260200190815260200160002081905550610913826001546118f990919063ffffffff16565b6001819055503373ffffffffffffffffffffffffffffffffffffffff166108fc839081150290604051600060405180830381858888f1935050505015801561095f573d6000803e3d6000fd5b506000809054906101000a900473ffffffffffffffffffffffffffffffffffffffff1673ffffffffffffffffffffffffffffffffffffffff1663a9059cbb33836040518363ffffffff1660e01b8152600401808373ffffffffffffffffffffffffffffffffffffffff1673ffffffffffffffffffffffffffffffffffffffff16815260200182815260200192505050602060405180830381600087803b158015610a0857600080fd5b505af1158015610a1c573d6000803e3d6000fd5b505050506040513d6020811015610a3257600080fd5b8101908080519060200190929190505050610a4c57600080fd5b7f3f5274d9edd3b530545223adc84dcf865f2433783bc200984750bd356af57253338383604051808473ffffffffffffffffffffffffffffffffffffffff1673ffffffffffffffffffffffffffffffffffffffff168152602001838152602001828152602001935050505060405180910390a181819550955050505050915091565b6000806000809054906101000a900473ffffffffffffffffffffffffffffffffffffffff1673ffffffffffffffffffffffffffffffffffffffff166370a08231306040518263ffffffff1660e01b8152600401808273ffffffffffffffffffffffffffffffffffffffff1673ffffffffffffffffffffffffffffffffffffffff16815260200191505060206040518083038186803b158015610b6f57600080fd5b505afa158015610b83573d6000803e3d6000fd5b505050506040513d6020811015610b9957600080fd5b810190808051906020019092919050505090506000610bb98483476104a5565b90503373ffffffffffffffffffffffffffffffffffffffff166108fc829081150290604051600060405180830381858888f19350505050158015610c01573d6000803e3d6000fd5b506000809054906101000a900473ffffffffffffffffffffffffffffffffffffffff1673ffffffffffffffffffffffffffffffffffffffff166323b872dd3330876040518463ffffffff1660e01b8152600401808473ffffffffffffffffffffffffffffffffffffffff1673ffffffffffffffffffffffffffffffffffffffff1681526020018373ffffffffffffffffffffffffffffffffffffffff1673ffffffffffffffffffffffffffffffffffffffff1681526020018281526020019350505050602060405180830381600087803b158015610cde57600080fd5b505af1158015610cf2573d6000803e3d6000fd5b505050506040513d6020811015610d0857600080fd5b8101908080519060200190929190505050610d2257600080fd5b7f91f5d71815dd153e8132276dbadc13879517266f7f764bf3905ecf1dda6efbf8338286604051808473ffffffffffffffffffffffffffffffffffffffff1673ffffffffffffffffffffffffffffffffffffffff168152602001838152602001828152602001935050505060405180910390a18092505050919050565b6000806000809054906101000a900473ffffffffffffffffffffffffffffffffffffffff1673ffffffffffffffffffffffffffffffffffffffff166370a08231306040518263ffffffff1660e01b8152600401808273ffffffffffffffffffffffffffffffffffffffff1673ffffffffffffffffffffffffffffffffffffffff16815260200191505060206040518083038186803b158015610e4057600080fd5b505afa158015610e54573d6000803e3d6000fd5b505050506040513d6020811015610e6a57600080fd5b810190808051906020019092919050505090506000610e9c34610e9634476118f990919063ffffffff16565b846104a5565b90506000809054906101000a900473ffffffffffffffffffffffffffffffffffffffff1673ffffffffffffffffffffffffffffffffffffffff1663a9059cbb33836040518363ffffffff1660e01b8152600401808373ffffffffffffffffffffffffffffffffffffffff1673ffffffffffffffffffffffffffffffffffffffff16815260200182815260200192505050602060405180830381600087803b158015610f4657600080fd5b505af1158015610f5a573d6000803e3d6000fd5b505050506040513d6020811015610f7057600080fd5b8101908080519060200190929190505050610f8a57600080fd5b476001819055507f01553c92cc7221c2346ae723db37fc1dce7d020a1aeaae50219094bc2651a930333483604051808473ffffffffffffffffffffffffffffffffffffffff1673ffffffffffffffffffffffffffffffffffffffff168152602001838152602001828152602001935050505060405180910390a1809250505090565b6000806000809054906101000a900473ffffffffffffffffffffffffffffffffffffffff1673ffffffffffffffffffffffffffffffffffffffff166370a08231306040518263ffffffff1660e01b8152600401808273ffffffffffffffffffffffffffffffffffffffff1673ffffffffffffffffffffffffffffffffffffffff16815260200191505060206040518083038186803b1580156110ad57600080fd5b505afa1580156110c1573d6000803e3d6000fd5b505050506040513d60208110156110d757600080fd5b810190808051906020019092919050505090508091505090565b6000804790508091505090565b60006111e382476000809054906101000a900473ffffffffffffffffffffffffffffffffffffffff1673ffffffffffffffffffffffffffffffffffffffff166370a08231306040518263ffffffff1660e01b8152600401808273ffffffffffffffffffffffffffffffffffffffff1673ffffffffffffffffffffffffffffffffffffffff16815260200191505060206040518083038186803b1580156111a357600080fd5b505afa1580156111b7573d6000803e3d6000fd5b505050506040513d60208110156111cd57600080fd5b81019080805190602001909291905050506104a5565b9050919050565b60008060015414611263576040517f08c379a00000000000000000000000000000000000000000000000000000000081526004018080602001828103825260208152602001807f4445583a696e6974202d20616c726561647920686173206c697175696469747981525060200191505060405180910390fd5b670de0b6b3a7640000820234146112c5576040517f08c379a0000000000000000000000000000000000000000000000000000000008152600401808060200182810382526031815260200180611a046031913960400191505060405180910390fd5b47600181905550600154600260003373ffffffffffffffffffffffffffffffffffffffff1673ffffffffffffffffffffffffffffffffffffffff168152602001908152602001600020819055506000809054906101000a900473ffffffffffffffffffffffffffffffffffffffff1673ffffffffffffffffffffffffffffffffffffffff166323b872dd3330856040518463ffffffff1660e01b8152600401808473ffffffffffffffffffffffffffffffffffffffff1673ffffffffffffffffffffffffffffffffffffffff1681526020018373ffffffffffffffffffffffffffffffffffffffff1673ffffffffffffffffffffffffffffffffffffffff1681526020018281526020019350505050602060405180830381600087803b1580156113ee57600080fd5b505af1158015611402573d6000803e3d6000fd5b505050506040513d602081101561141857600080fd5b810190808051906020019092919050505061143257600080fd5b6001549050919050565b60026020528060005260406000206000915090505481565b60008061146a34476118f990919063ffffffff16565b905060008060009054906101000a900473ffffffffffffffffffffffffffffffffffffffff1673ffffffffffffffffffffffffffffffffffffffff166370a08231306040518263ffffffff1660e01b8152600401808273ffffffffffffffffffffffffffffffffffffffff1673ffffffffffffffffffffffffffffffffffffffff16815260200191505060206040518083038186803b15801561150c57600080fd5b505afa158015611520573d6000803e3d6000fd5b505050506040513d602081101561153657600080fd5b81019080805190602001909291905050509050600061157a60018461156485346117eb90919063ffffffff16565b8161156b57fe5b0461187190919063ffffffff16565b9050600083611594600154346117eb90919063ffffffff16565b8161159b57fe5b0490506115f081600260003373ffffffffffffffffffffffffffffffffffffffff1673ffffffffffffffffffffffffffffffffffffffff1681526020019081526020016000205461187190919063ffffffff16565b600260003373ffffffffffffffffffffffffffffffffffffffff1673ffffffffffffffffffffffffffffffffffffffff168152602001908152602001600020819055506116488160015461187190919063ffffffff16565b6001819055506000809054906101000a900473ffffffffffffffffffffffffffffffffffffffff1673ffffffffffffffffffffffffffffffffffffffff166323b872dd3330856040518463ffffffff1660e01b8152600401808473ffffffffffffffffffffffffffffffffffffffff1673ffffffffffffffffffffffffffffffffffffffff1681526020018373ffffffffffffffffffffffffffffffffffffffff1673ffffffffffffffffffffffffffffffffffffffff1681526020018281526020019350505050602060405180830381600087803b15801561172a57600080fd5b505af115801561173e573d6000803e3d6000fd5b505050506040513d602081101561175457600080fd5b810190808051906020019092919050505061176e57600080fd5b7fe69e4e347794293f7f61c91272c30744e87652216af316bb04c0ab459d21a04c333484604051808473ffffffffffffffffffffffffffffffffffffffff1673ffffffffffffffffffffffffffffffffffffffff168152602001838152602001828152602001935050505060405180910390a18094505050505090565b6000808314156117fe576000905061186b565b600082840290508284828161180f57fe5b0414611866576040517f08c379a0000000000000000000000000000000000000000000000000000000008152600401808060200182810382526021815260200180611aa16021913960400191505060405180910390fd5b809150505b92915050565b6000808284019050838110156118ef576040517f08c379a000000000000000000000000000000000000000000000000000000000815260040180806020018281038252601b8152602001807f536166654d6174683a206164646974696f6e206f766572666c6f77000000000081525060200191505060405180910390fd5b8091505092915050565b600061193b83836040518060400160405280601e81526020017f536166654d6174683a207375627472616374696f6e206f766572666c6f770000815250611943565b905092915050565b60008383111582906119f0576040517f08c379a00000000000000000000000000000000000000000000000000000000081526004018080602001828103825283818151815260200191508051906020019080838360005b838110156119b557808201518184015260208101905061199a565b50505050905090810190601f1680156119e25780820380516001836020036101000a031916815260200191505b509250505060405180910390fd5b506000838503905080915050939250505056fe4445583a696e6974202d206d7573742075736520657175616c20616d6f756e74206f662045746820616e6420746f6b656e5769746864726177616c20616d6f756e74206578636565647320617661696c61626c652064657820455448206c69717569646974795769746864726177616c20616d6f756e74206578636565647320617661696c61626c652064657820546f6b656e206c6971756964697479536166654d6174683a206d756c7469706c69636174696f6e206f766572666c6f775769746864726177616c20616d6f756e742065786365656473206163636f756e74204554482062616c616e6365a265627a7a72315820e4fccfe3c776cdf93cbd99a253d0507b8121b65a253cc46bf929408d5594804464736f6c63430005100032",
  "source": "// SPDX-License-Identifier: GPL-3.0\npragma solidity >=0.4.21 <0.7.0;\n\nimport \"./SafeMath.sol\";\nimport { IERC20 } from \"./Token.sol\";\n\n/// @title Simple decentralized exchange (dex), with pricing system similar to Uniswap\n/// @author David S\n/// @notice For demo purposes only. Do not deploy on mainnet\n/// @dev All function calls are currently implemented without side effects\ncontract Dex {\n\n\tusing SafeMath for uint256;\n\tIERC20 token;\n\n\tuint256 public totalLiquidity;\n\tmapping (address => uint256) public liquidity;\n\n\t// Events\n\tevent ethToTokenEvent(address swapper, uint256 ethVal, uint256 tokenVal);\n\tevent tokenToEthEvent(address swapper, uint256 ethVal, uint256 tokenVal);\n\tevent depositEvent(address depositor, uint256 ethVal, uint256 tokenVal);\n\tevent withdrawEvent(address withdrawer, uint256 ethVal, uint256 tokenVal);\n\n\tconstructor(address token_addr)\n\t\tpublic\n\t{\n\t\ttoken = IERC20(token_addr);\n\t\ttotalLiquidity = 0;\n\t}\n\n\tfunction init(uint256 tokens)\n\t\tpublic payable returns (uint256)\n\t{\n\t\trequire(totalLiquidity == 0, \"DEX:init - already has liquidity\");\n\t\trequire(msg.value == tokens*10**18, \"DEX:init - must use equal amount of Eth and token\");\n\t\ttotalLiquidity = address(this).balance;\n\t\tliquidity[msg.sender] = totalLiquidity;\n\t\trequire(token.transferFrom(msg.sender, address(this), tokens));\n\t\treturn totalLiquidity;\n \t}\n\n\tfunction price(uint256 input_amount, uint256 input_reserve, uint256 output_reserve)\n\t\tpublic pure returns (uint256)\n\t{\n\t\tuint256 input_amount_with_fee = input_amount.mul(997);\n\t\tuint256 numerator = input_amount_with_fee.mul(output_reserve);\n\t\tuint256 denominator = input_reserve.mul(1000).add(input_amount_with_fee);\n\t\treturn numerator / denominator;\n\t}\n\n\tfunction getEthLiquidity()\n\t\tpublic view returns (uint256)\n\t{\n\t\tuint256 _ethLiquidity = address(this).balance;\n\t\treturn _ethLiquidity;\n\t}\n\n\tfunction getTokenLiquidity()\n\t\tpublic view returns (uint256)\n\t{\n\t\tuint256 _tknLiquidity = token.balanceOf(address(this));\n\t\treturn _tknLiquidity;\n\t}\n\n\t/// @notice input_ETH in wei\n\tfunction getPriceEthToToken(uint256 input_ETH)\n\t\tpublic view returns (uint256)\n\t{\n\t\treturn price(input_ETH, address(this).balance, token.balanceOf(address(this)));\n\t}\n\n\t/// @notice Send ETH amount (in wei) in transaction to this function\n\tfunction ethToToken()\n\t\tpublic payable returns (uint256)\n\t{\n\t\tuint256 token_reserve = token.balanceOf(address(this));\n\t\tuint256 tokens_bought = price(msg.value, address(this).balance.sub(msg.value), token_reserve);\n\t\trequire(token.transfer(msg.sender, tokens_bought));\n\t\ttotalLiquidity = address(this).balance;\n\t\temit ethToTokenEvent(msg.sender, msg.value, tokens_bought);\n\t\treturn tokens_bought;\n\t}\n\n\tfunction getPriceTokenToEth(uint256 input_Token)\n\t\tpublic view returns (uint256)\n\t{\n\t\treturn price(input_Token, token.balanceOf(address(this)), address(this).balance);\n\t}\n\n\tfunction tokenToEth(uint256 tokens)\n\t\tpublic returns (uint256)\n\t{\n\t\tuint256 token_reserve = token.balanceOf(address(this));\n\t\tuint256 eth_bought = price(tokens, token_reserve, address(this).balance);\n\t\tmsg.sender.transfer(eth_bought);\n\t\trequire(token.transferFrom(msg.sender, address(this), tokens));\n\t\temit tokenToEthEvent(msg.sender, eth_bought, tokens);\n\t\treturn eth_bought;\n\t}\n\n\t/// @notice Send ETH in a transaction, func with transfer Token from sender according to pool balance\n\tfunction deposit()\n\t\tpublic payable returns (uint256)\n\t{\n\t\tuint256 eth_reserve = address(this).balance.sub(msg.value);\n\t\tuint256 token_reserve = token.balanceOf(address(this));\n\t\tuint256 token_amount = (msg.value.mul(token_reserve) / eth_reserve).add(1);\n\t\tuint256 liquidity_minted = msg.value.mul(totalLiquidity) / eth_reserve;\n\t\tliquidity[msg.sender] = liquidity[msg.sender].add(liquidity_minted);\n\t\ttotalLiquidity = totalLiquidity.add(liquidity_minted);\n\t\trequire(token.transferFrom(msg.sender, address(this), token_amount));\n\t\temit depositEvent(msg.sender, msg.value, token_amount);\n\t\treturn liquidity_minted;\n\t}\n\n\t/// @notice Withdraws 'amount' of ETH and Token (according to pool balance) to sender's account\n\t/// @dev 'amount' in wei\n\tfunction withdraw(uint256 amount)\n\t\tpublic returns (uint256, uint256)\n\t{\n\t\tuint256 _amount = amount*10**18;\n\t\tuint256 token_reserve = token.balanceOf(address(this));\n\t\tuint256 eth_amount = _amount.mul(address(this).balance) / totalLiquidity;\n\t\tuint256 token_amount = _amount.mul(token_reserve) / totalLiquidity;\n\t\trequire(address(this).balance > eth_amount, \"Withdrawal amount exceeds available dex ETH liquidity\");\n\t\trequire(token.balanceOf(address(this)) > token_amount, \"Withdrawal amount exceeds available dex Token liquidity\");\n\t\trequire(liquidity[msg.sender] > eth_amount, \"Withdrawal amount exceeds account ETH balance\");\n\t\tliquidity[msg.sender] = liquidity[msg.sender].sub(eth_amount);\n\t\ttotalLiquidity = totalLiquidity.sub(eth_amount);\n\t\tmsg.sender.transfer(eth_amount);\n\t\trequire(token.transfer(msg.sender, token_amount));\n\t\temit withdrawEvent(msg.sender, eth_amount, token_amount);\n\t\treturn (eth_amount, token_amount);\n\t}\n\n\tfunction() external payable {}\n}",
  "sourcePath": "/Users/david/Desktop/Dave/dev_stuff/ethereum_bootcamp_Sept2020/course/final_proj/dex/contracts/Dex.sol",
  "compiler": {
    "name": "solc",
    "version": "0.5.16+commit.9c3226ce.Emscripten.clang"
  },
  "schemaVersion": "3.3.2",
  "updatedAt": "2020-12-14T01:54:15.019Z",
  "networkType": "ethereum",
  "devdoc": {
    "author": "David S",
    "details": "All function calls are currently implemented without side effects",
    "methods": {
      "withdraw(uint256)": {
        "details": "'amount' in wei"
      }
    },
    "title": "Simple decentralized exchange (dex), with pricing system similar to Uniswap"
  },
  "userdoc": {
    "methods": {
      "deposit()": {
        "notice": "Send ETH in a transaction, func with transfer Token from sender according to pool balance"
      },
      "ethToToken()": {
        "notice": "Send ETH amount (in wei) in transaction to this function"
      },
      "getPriceEthToToken(uint256)": {
        "notice": "input_ETH in wei"
      },
      "withdraw(uint256)": {
        "notice": "Withdraws 'amount' of ETH and Token (according to pool balance) to sender's account"
      }
    },
    "notice": "For demo purposes only. Do not deploy on mainnet"
  }
}