{
  "contractName": "Dex",
  "abi": [
    {
      "inputs": [
        {
          "internalType": "address",
          "name": "token_addr",
          "type": "address"
        }
      ],
      "payable": false,
      "stateMutability": "nonpayable",
      "type": "constructor"
    },
    {
      "payable": true,
      "stateMutability": "payable",
      "type": "fallback"
    },
    {
      "constant": true,
      "inputs": [
        {
          "internalType": "address",
          "name": "",
          "type": "address"
        }
      ],
      "name": "liquidity",
      "outputs": [
        {
          "internalType": "uint256",
          "name": "",
          "type": "uint256"
        }
      ],
      "payable": false,
      "stateMutability": "view",
      "type": "function"
    },
    {
      "constant": true,
      "inputs": [],
      "name": "totalLiquidity",
      "outputs": [
        {
          "internalType": "uint256",
          "name": "",
          "type": "uint256"
        }
      ],
      "payable": false,
      "stateMutability": "view",
      "type": "function"
    },
    {
      "constant": false,
      "inputs": [
        {
          "internalType": "string",
          "name": "_greeting",
          "type": "string"
        }
      ],
      "name": "set",
      "outputs": [],
      "payable": false,
      "stateMutability": "nonpayable",
      "type": "function"
    },
    {
      "constant": true,
      "inputs": [],
      "name": "get",
      "outputs": [
        {
          "internalType": "string",
          "name": "",
          "type": "string"
        }
      ],
      "payable": false,
      "stateMutability": "view",
      "type": "function"
    },
    {
      "constant": true,
      "inputs": [],
      "name": "getLiquidity",
      "outputs": [
        {
          "internalType": "uint256",
          "name": "",
          "type": "uint256"
        }
      ],
      "payable": false,
      "stateMutability": "view",
      "type": "function"
    },
    {
      "constant": false,
      "inputs": [],
      "name": "refreshLiquidity",
      "outputs": [],
      "payable": false,
      "stateMutability": "nonpayable",
      "type": "function"
    },
    {
      "constant": true,
      "inputs": [],
      "name": "getEthBalance",
      "outputs": [
        {
          "internalType": "uint256",
          "name": "",
          "type": "uint256"
        }
      ],
      "payable": false,
      "stateMutability": "view",
      "type": "function"
    },
    {
      "constant": true,
      "inputs": [
        {
          "internalType": "uint256",
          "name": "input_ETH",
          "type": "uint256"
        }
      ],
      "name": "getPriceEthToToken",
      "outputs": [
        {
          "internalType": "uint256",
          "name": "",
          "type": "uint256"
        }
      ],
      "payable": false,
      "stateMutability": "view",
      "type": "function"
    },
    {
      "constant": true,
      "inputs": [
        {
          "internalType": "uint256",
          "name": "input_Token",
          "type": "uint256"
        }
      ],
      "name": "getPriceTokenToEth",
      "outputs": [
        {
          "internalType": "uint256",
          "name": "",
          "type": "uint256"
        }
      ],
      "payable": false,
      "stateMutability": "view",
      "type": "function"
    },
    {
      "constant": false,
      "inputs": [
        {
          "internalType": "uint256",
          "name": "tokens",
          "type": "uint256"
        }
      ],
      "name": "init",
      "outputs": [
        {
          "internalType": "uint256",
          "name": "",
          "type": "uint256"
        }
      ],
      "payable": true,
      "stateMutability": "payable",
      "type": "function"
    },
    {
      "constant": true,
      "inputs": [
        {
          "internalType": "uint256",
          "name": "input_amount",
          "type": "uint256"
        },
        {
          "internalType": "uint256",
          "name": "input_reserve",
          "type": "uint256"
        },
        {
          "internalType": "uint256",
          "name": "output_reserve",
          "type": "uint256"
        }
      ],
      "name": "price",
      "outputs": [
        {
          "internalType": "uint256",
          "name": "",
          "type": "uint256"
        }
      ],
      "payable": false,
      "stateMutability": "pure",
      "type": "function"
    },
    {
      "constant": false,
      "inputs": [],
      "name": "ethToToken",
      "outputs": [
        {
          "internalType": "uint256",
          "name": "",
          "type": "uint256"
        }
      ],
      "payable": true,
      "stateMutability": "payable",
      "type": "function"
    },
    {
      "constant": false,
      "inputs": [
        {
          "internalType": "uint256",
          "name": "tokens",
          "type": "uint256"
        }
      ],
      "name": "tokenToEth",
      "outputs": [
        {
          "internalType": "uint256",
          "name": "",
          "type": "uint256"
        }
      ],
      "payable": false,
      "stateMutability": "nonpayable",
      "type": "function"
    },
    {
      "constant": false,
      "inputs": [],
      "name": "deposit",
      "outputs": [
        {
          "internalType": "uint256",
          "name": "",
          "type": "uint256"
        }
      ],
      "payable": true,
      "stateMutability": "payable",
      "type": "function"
    },
    {
      "constant": false,
      "inputs": [
        {
          "internalType": "uint256",
          "name": "amount",
          "type": "uint256"
        }
      ],
      "name": "withdraw",
      "outputs": [
        {
          "internalType": "uint256",
          "name": "",
          "type": "uint256"
        },
        {
          "internalType": "uint256",
          "name": "",
          "type": "uint256"
        }
      ],
      "payable": false,
      "stateMutability": "nonpayable",
      "type": "function"
    }
  ],
  "bytecode": "0x60806040526040518060400160405280600b81526020017f48656c6c6f20576f726c640000000000000000000000000000000000000000008152506003908051906020019062000051929190620000e5565b503480156200005f57600080fd5b5060405162001a6d38038062001a6d833981810160405260208110156200008557600080fd5b8101908080519060200190929190505050806000806101000a81548173ffffffffffffffffffffffffffffffffffffffff021916908373ffffffffffffffffffffffffffffffffffffffff16021790555060006001819055505062000194565b828054600181600116156101000203166002900490600052602060002090601f016020900481019282601f106200012857805160ff191683800117855562000159565b8280016001018555821562000159579182015b82811115620001585782518255916020019190600101906200013b565b5b5090506200016891906200016c565b5090565b6200019191905b808211156200018d57600081600090555060010162000173565b5090565b90565b6118c980620001a46000396000f3fe6080604052600436106100e85760003560e01c80636d4ce63c1161008a578063ae3c224811610059578063ae3c22481461044f578063b7b0422d1461049e578063b8c876b1146104e0578063d0e30db014610545576100e8565b80636d4ce63c1461032757806370b2a30f146103b757806370ed0ada14610406578063789770f414610431576100e8565b80632071a9f4116100c65780632071a9f41461018f5780632e1a7d4d146101f25780634ed3885e146102485780635ea0ef8214610310576100e8565b80630910a510146100ea57806310b09bb21461011557806315770f9214610164575b005b3480156100f657600080fd5b506100ff610563565b6040518082815260200191505060405180910390f35b34801561012157600080fd5b5061014e6004803603602081101561013857600080fd5b810190808035906020019092919050505061056d565b6040518082815260200191505060405180910390f35b34801561017057600080fd5b50610179610659565b6040518082815260200191505060405180910390f35b34801561019b57600080fd5b506101dc600480360360608110156101b257600080fd5b8101908080359060200190929190803590602001909291908035906020019092919050505061065f565b6040518082815260200191505060405180910390f35b3480156101fe57600080fd5b5061022b6004803603602081101561021557600080fd5b81019080803590602001909291905050506106d1565b604051808381526020018281526020019250505060405180910390f35b34801561025457600080fd5b5061030e6004803603602081101561026b57600080fd5b810190808035906020019064010000000081111561028857600080fd5b82018360208201111561029a57600080fd5b803590602001918460018302840111640100000000831117156102bc57600080fd5b91908080601f016020809104026020016040519081016040528093929190818152602001838380828437600081840152601f19601f8201169050808301925050505050505091929192905050506109e6565b005b34801561031c57600080fd5b50610325610a00565b005b34801561033357600080fd5b5061033c610a09565b6040518080602001828103825283818151815260200191508051906020019080838360005b8381101561037c578082015181840152602081019050610361565b50505050905090810190601f1680156103a95780820380516001836020036101000a031916815260200191505b509250505060405180910390f35b3480156103c357600080fd5b506103f0600480360360208110156103da57600080fd5b8101908080359060200190929190505050610aab565b6040518082815260200191505060405180910390f35b34801561041257600080fd5b5061041b610d09565b6040518082815260200191505060405180910390f35b610439610d11565b6040518082815260200191505060405180910390f35b34801561045b57600080fd5b506104886004803603602081101561047257600080fd5b8101908080359060200190929190505050610f0b565b6040518082815260200191505060405180910390f35b6104ca600480360360208110156104b457600080fd5b8101908080359060200190929190505050610ff7565b6040518082815260200191505060405180910390f35b3480156104ec57600080fd5b5061052f6004803603602081101561050357600080fd5b81019080803573ffffffffffffffffffffffffffffffffffffffff169060200190929190505050611249565b6040518082815260200191505060405180910390f35b61054d611261565b6040518082815260200191505060405180910390f35b6000600154905090565b6000610652826000809054906101000a900473ffffffffffffffffffffffffffffffffffffffff1673ffffffffffffffffffffffffffffffffffffffff166370a08231306040518263ffffffff1660e01b8152600401808273ffffffffffffffffffffffffffffffffffffffff1673ffffffffffffffffffffffffffffffffffffffff16815260200191505060206040518083038186803b15801561061157600080fd5b505afa158015610625573d6000803e3d6000fd5b505050506040513d602081101561063b57600080fd5b81019080805190602001909291905050504761065f565b9050919050565b60015481565b6000806106776103e58661158590919063ffffffff16565b9050600061068e848361158590919063ffffffff16565b905060006106b9836106ab6103e88961158590919063ffffffff16565b61160b90919063ffffffff16565b90508082816106c457fe5b0493505050509392505050565b60008060008060009054906101000a900473ffffffffffffffffffffffffffffffffffffffff1673ffffffffffffffffffffffffffffffffffffffff166370a08231306040518263ffffffff1660e01b8152600401808273ffffffffffffffffffffffffffffffffffffffff1673ffffffffffffffffffffffffffffffffffffffff16815260200191505060206040518083038186803b15801561077457600080fd5b505afa158015610788573d6000803e3d6000fd5b505050506040513d602081101561079e57600080fd5b8101908080519060200190929190505050905060006001546107c9478761158590919063ffffffff16565b816107d057fe5b04905060006001546107eb848861158590919063ffffffff16565b816107f257fe5b04905061084782600260003373ffffffffffffffffffffffffffffffffffffffff1673ffffffffffffffffffffffffffffffffffffffff1681526020019081526020016000205461169390919063ffffffff16565b600260003373ffffffffffffffffffffffffffffffffffffffff1673ffffffffffffffffffffffffffffffffffffffff1681526020019081526020016000208190555061089f8260015461169390919063ffffffff16565b6001819055503373ffffffffffffffffffffffffffffffffffffffff166108fc839081150290604051600060405180830381858888f193505050501580156108eb573d6000803e3d6000fd5b506000809054906101000a900473ffffffffffffffffffffffffffffffffffffffff1673ffffffffffffffffffffffffffffffffffffffff1663a9059cbb33836040518363ffffffff1660e01b8152600401808373ffffffffffffffffffffffffffffffffffffffff1673ffffffffffffffffffffffffffffffffffffffff16815260200182815260200192505050602060405180830381600087803b15801561099457600080fd5b505af11580156109a8573d6000803e3d6000fd5b505050506040513d60208110156109be57600080fd5b81019080805190602001909291905050506109d857600080fd5b818194509450505050915091565b80600390805190602001906109fc92919061179d565b5050565b47600181905550565b606060038054600181600116156101000203166002900480601f016020809104026020016040519081016040528092919081815260200182805460018160011615610100020316600290048015610aa15780601f10610a7657610100808354040283529160200191610aa1565b820191906000526020600020905b815481529060010190602001808311610a8457829003601f168201915b5050505050905090565b6000806000809054906101000a900473ffffffffffffffffffffffffffffffffffffffff1673ffffffffffffffffffffffffffffffffffffffff166370a08231306040518263ffffffff1660e01b8152600401808273ffffffffffffffffffffffffffffffffffffffff1673ffffffffffffffffffffffffffffffffffffffff16815260200191505060206040518083038186803b158015610b4c57600080fd5b505afa158015610b60573d6000803e3d6000fd5b505050506040513d6020811015610b7657600080fd5b810190808051906020019092919050505090506000610b9684834761065f565b90503373ffffffffffffffffffffffffffffffffffffffff166108fc829081150290604051600060405180830381858888f19350505050158015610bde573d6000803e3d6000fd5b506000809054906101000a900473ffffffffffffffffffffffffffffffffffffffff1673ffffffffffffffffffffffffffffffffffffffff166323b872dd3330876040518463ffffffff1660e01b8152600401808473ffffffffffffffffffffffffffffffffffffffff1673ffffffffffffffffffffffffffffffffffffffff1681526020018373ffffffffffffffffffffffffffffffffffffffff1673ffffffffffffffffffffffffffffffffffffffff1681526020018281526020019350505050602060405180830381600087803b158015610cbb57600080fd5b505af1158015610ccf573d6000803e3d6000fd5b505050506040513d6020811015610ce557600080fd5b8101908080519060200190929190505050610cff57600080fd5b8092505050919050565b600047905090565b6000806000809054906101000a900473ffffffffffffffffffffffffffffffffffffffff1673ffffffffffffffffffffffffffffffffffffffff166370a08231306040518263ffffffff1660e01b8152600401808273ffffffffffffffffffffffffffffffffffffffff1673ffffffffffffffffffffffffffffffffffffffff16815260200191505060206040518083038186803b158015610db257600080fd5b505afa158015610dc6573d6000803e3d6000fd5b505050506040513d6020811015610ddc57600080fd5b810190808051906020019092919050505090506000610e0e34610e08344761169390919063ffffffff16565b8461065f565b90506000809054906101000a900473ffffffffffffffffffffffffffffffffffffffff1673ffffffffffffffffffffffffffffffffffffffff1663a9059cbb33836040518363ffffffff1660e01b8152600401808373ffffffffffffffffffffffffffffffffffffffff1673ffffffffffffffffffffffffffffffffffffffff16815260200182815260200192505050602060405180830381600087803b158015610eb857600080fd5b505af1158015610ecc573d6000803e3d6000fd5b505050506040513d6020811015610ee257600080fd5b8101908080519060200190929190505050610efc57600080fd5b47600181905550809250505090565b6000610ff082476000809054906101000a900473ffffffffffffffffffffffffffffffffffffffff1673ffffffffffffffffffffffffffffffffffffffff166370a08231306040518263ffffffff1660e01b8152600401808273ffffffffffffffffffffffffffffffffffffffff1673ffffffffffffffffffffffffffffffffffffffff16815260200191505060206040518083038186803b158015610fb057600080fd5b505afa158015610fc4573d6000803e3d6000fd5b505050506040513d6020811015610fda57600080fd5b810190808051906020019092919050505061065f565b9050919050565b60008060015414611070576040517f08c379a00000000000000000000000000000000000000000000000000000000081526004018080602001828103825260208152602001807f4445583a696e6974202d20616c726561647920686173206c697175696469747981525060200191505060405180910390fd5b670de0b6b3a7640000820234146110d2576040517f08c379a00000000000000000000000000000000000000000000000000000000081526004018080602001828103825260318152602001806118436031913960400191505060405180910390fd5b47600181905550600154600260003373ffffffffffffffffffffffffffffffffffffffff1673ffffffffffffffffffffffffffffffffffffffff168152602001908152602001600020819055506000809054906101000a900473ffffffffffffffffffffffffffffffffffffffff1673ffffffffffffffffffffffffffffffffffffffff166323b872dd3330856040518463ffffffff1660e01b8152600401808473ffffffffffffffffffffffffffffffffffffffff1673ffffffffffffffffffffffffffffffffffffffff1681526020018373ffffffffffffffffffffffffffffffffffffffff1673ffffffffffffffffffffffffffffffffffffffff1681526020018281526020019350505050602060405180830381600087803b1580156111fb57600080fd5b505af115801561120f573d6000803e3d6000fd5b505050506040513d602081101561122557600080fd5b810190808051906020019092919050505061123f57600080fd5b6001549050919050565b60026020528060005260406000206000915090505481565b600080611277344761169390919063ffffffff16565b905060008060009054906101000a900473ffffffffffffffffffffffffffffffffffffffff1673ffffffffffffffffffffffffffffffffffffffff166370a08231306040518263ffffffff1660e01b8152600401808273ffffffffffffffffffffffffffffffffffffffff1673ffffffffffffffffffffffffffffffffffffffff16815260200191505060206040518083038186803b15801561131957600080fd5b505afa15801561132d573d6000803e3d6000fd5b505050506040513d602081101561134357600080fd5b810190808051906020019092919050505090506000611387600184611371853461158590919063ffffffff16565b8161137857fe5b0461160b90919063ffffffff16565b90506000836113a16001543461158590919063ffffffff16565b816113a857fe5b0490506113fd81600260003373ffffffffffffffffffffffffffffffffffffffff1673ffffffffffffffffffffffffffffffffffffffff1681526020019081526020016000205461160b90919063ffffffff16565b600260003373ffffffffffffffffffffffffffffffffffffffff1673ffffffffffffffffffffffffffffffffffffffff168152602001908152602001600020819055506114558160015461160b90919063ffffffff16565b6001819055506000809054906101000a900473ffffffffffffffffffffffffffffffffffffffff1673ffffffffffffffffffffffffffffffffffffffff166323b872dd3330856040518463ffffffff1660e01b8152600401808473ffffffffffffffffffffffffffffffffffffffff1673ffffffffffffffffffffffffffffffffffffffff1681526020018373ffffffffffffffffffffffffffffffffffffffff1673ffffffffffffffffffffffffffffffffffffffff1681526020018281526020019350505050602060405180830381600087803b15801561153757600080fd5b505af115801561154b573d6000803e3d6000fd5b505050506040513d602081101561156157600080fd5b810190808051906020019092919050505061157b57600080fd5b8094505050505090565b6000808314156115985760009050611605565b60008284029050828482816115a957fe5b0414611600576040517f08c379a00000000000000000000000000000000000000000000000000000000081526004018080602001828103825260218152602001806118746021913960400191505060405180910390fd5b809150505b92915050565b600080828401905083811015611689576040517f08c379a000000000000000000000000000000000000000000000000000000000815260040180806020018281038252601b8152602001807f536166654d6174683a206164646974696f6e206f766572666c6f77000000000081525060200191505060405180910390fd5b8091505092915050565b60006116d583836040518060400160405280601e81526020017f536166654d6174683a207375627472616374696f6e206f766572666c6f7700008152506116dd565b905092915050565b600083831115829061178a576040517f08c379a00000000000000000000000000000000000000000000000000000000081526004018080602001828103825283818151815260200191508051906020019080838360005b8381101561174f578082015181840152602081019050611734565b50505050905090810190601f16801561177c5780820380516001836020036101000a031916815260200191505b509250505060405180910390fd5b5060008385039050809150509392505050565b828054600181600116156101000203166002900490600052602060002090601f016020900481019282601f106117de57805160ff191683800117855561180c565b8280016001018555821561180c579182015b8281111561180b5782518255916020019190600101906117f0565b5b509050611819919061181d565b5090565b61183f91905b8082111561183b576000816000905550600101611823565b5090565b9056fe4445583a696e6974202d206d7573742075736520657175616c20616d6f756e74206f662045746820616e6420746f6b656e536166654d6174683a206d756c7469706c69636174696f6e206f766572666c6f77a265627a7a723158206a439cebece693de080bd3659e8faa97bceaf8be9aa6d708aafa41dd04f9129564736f6c63430005100032",
  "source": "pragma solidity >=0.4.21 <0.7.0;\n\nimport \"./SafeMath.sol\";\nimport { IERC20 } from \"./Token.sol\";\n\ncontract Dex {\n\n\tusing SafeMath for uint256;\n\tIERC20 token;\n\n\tuint256 public totalLiquidity;\n\tmapping (address => uint256) public liquidity;\n\n\t// Test functions\n\tstring greeting = \"Hello World\";\n\n\tfunction set(string memory _greeting) public {\n\t\tgreeting = _greeting;\n\t}\n\n\tfunction get() public view returns (string memory) {\n\t\treturn greeting;\n\t}\n\n\tfunction getLiquidity() public view returns (uint256) {\n\t\treturn totalLiquidity;\n\t}\n\n\tfunction refreshLiquidity() public {\n\t\ttotalLiquidity = address(this).balance;\n\t}\n\n\tfunction getEthBalance() public view returns (uint256) {\n\t\treturn address(this).balance;\n\t}\n\n\t// End of test functions\n\n\t// Utility funcs\n\n\tfunction getPriceEthToToken(uint256 input_ETH) public view returns (uint256) {\n\t\treturn price(input_ETH, address(this).balance, token.balanceOf(address(this)));\n\t}\n\n\tfunction getPriceTokenToEth(uint256 input_Token) public view returns (uint256) {\n\t\treturn price(input_Token, token.balanceOf(address(this)), address(this).balance);\n\t}\n\n\n\t// Core DEX functions\n\t\n\tconstructor(address token_addr) public {\n\t\ttoken = IERC20(token_addr);\n\t\ttotalLiquidity = 0;\n\t}\n\n\tfunction init(uint256 tokens) public payable returns (uint256) {\n\t\trequire(totalLiquidity == 0, \"DEX:init - already has liquidity\");\n\t\trequire(msg.value == tokens*10**18, \"DEX:init - must use equal amount of Eth and token\");\n\t\ttotalLiquidity = address(this).balance;\n\t\tliquidity[msg.sender] = totalLiquidity;\n\t\trequire(token.transferFrom(msg.sender, address(this), tokens));\n\t\treturn totalLiquidity;\n \t}\n\n \tfunction price(uint256 input_amount, uint256 input_reserve, uint256 output_reserve) public pure returns (uint256) {\n  \t\tuint256 input_amount_with_fee = input_amount.mul(997);\n  \t\tuint256 numerator = input_amount_with_fee.mul(output_reserve);\n  \t\tuint256 denominator = input_reserve.mul(1000).add(input_amount_with_fee);\n  \t\treturn numerator / denominator;\n\t}\n\n\tfunction ethToToken() public payable returns (uint256) {\n  \t\tuint256 token_reserve = token.balanceOf(address(this));\n  \t\tuint256 tokens_bought = price(msg.value, address(this).balance.sub(msg.value), token_reserve);\n  \t\trequire(token.transfer(msg.sender, tokens_bought));\n  \t\ttotalLiquidity = address(this).balance;\n  \t\treturn tokens_bought;\n\t}\n\n\tfunction tokenToEth(uint256 tokens) public returns (uint256) {\n  \t\tuint256 token_reserve = token.balanceOf(address(this));\n  \t\tuint256 eth_bought = price(tokens, token_reserve, address(this).balance);\n  \t\tmsg.sender.transfer(eth_bought);\n  \t\trequire(token.transferFrom(msg.sender, address(this), tokens));\n  \t\treturn eth_bought;\n\t}\n\n\tfunction deposit() public payable returns (uint256) {\n\t  // Send an amount of ETH in a transaction\n\t  // Function will initiate Token transfer from sender\n\t  // Token amount calculated, based off balance of liquidity in pool\n\t  uint256 eth_reserve = address(this).balance.sub(msg.value);\n\t  uint256 token_reserve = token.balanceOf(address(this));\n\t  uint256 token_amount = (msg.value.mul(token_reserve) / eth_reserve).add(1);\n\t  uint256 liquidity_minted = msg.value.mul(totalLiquidity) / eth_reserve;\n\t  liquidity[msg.sender] = liquidity[msg.sender].add(liquidity_minted);\n\t  totalLiquidity = totalLiquidity.add(liquidity_minted);\n\t  require(token.transferFrom(msg.sender, address(this), token_amount));\n\t  return liquidity_minted;\n\t}\n\n\tfunction withdraw(uint256 amount) public returns (uint256, uint256) {\n\t  // Withdraws 'amount' number of ETH to sender's account\n\t  // Initiate Token transfer to sender\n\t  // Token amount calculated, based off balance of liquidity in pool\n\t  uint256 token_reserve = token.balanceOf(address(this));\n\t  uint256 eth_amount = amount.mul(address(this).balance) / totalLiquidity;\n\t  uint256 token_amount = amount.mul(token_reserve) / totalLiquidity;\n\t  liquidity[msg.sender] = liquidity[msg.sender].sub(eth_amount);\n\t  totalLiquidity = totalLiquidity.sub(eth_amount);\n\t  msg.sender.transfer(eth_amount);\n\t  require(token.transfer(msg.sender, token_amount));\n\t  return (eth_amount, token_amount);\n\t}\n\n \tfunction() external payable { }\n}",
  "sourcePath": "/Users/david/Desktop/Dave/dev_stuff/ethereum_bootcamp_Sept2020/course/final_proj/dex/contracts/Dex.sol",
  "compiler": {
    "name": "solc",
    "version": "0.5.16+commit.9c3226ce.Emscripten.clang"
  },
  "schemaVersion": "3.3.2",
  "updatedAt": "2020-12-12T07:14:06.984Z",
  "networkType": "ethereum",
  "devdoc": {
    "methods": {}
  },
  "userdoc": {
    "methods": {}
  }
}